{
  "contractName": "PlayerContract",
  "abi": [
    {
      "inputs": [
        {
          "internalType": "uint256",
          "name": "",
          "type": "uint256"
        }
      ],
      "name": "player",
      "outputs": [
        {
          "internalType": "string",
          "name": "name",
          "type": "string"
        },
        {
          "internalType": "uint256",
          "name": "level",
          "type": "uint256"
        },
        {
          "internalType": "uint256",
          "name": "highestScore",
          "type": "uint256"
        }
      ],
      "stateMutability": "view",
      "type": "function",
      "constant": true
    },
    {
      "inputs": [],
      "name": "playerCount",
      "outputs": [
        {
          "internalType": "uint256",
          "name": "",
          "type": "uint256"
        }
      ],
      "stateMutability": "view",
      "type": "function",
      "constant": true
    },
    {
      "inputs": [
        {
          "internalType": "string",
          "name": "name",
          "type": "string"
        },
        {
          "internalType": "uint256",
          "name": "level",
          "type": "uint256"
        },
        {
          "internalType": "uint256",
          "name": "highestScore",
          "type": "uint256"
        }
      ],
      "name": "addPlayer",
      "outputs": [],
      "stateMutability": "nonpayable",
      "type": "function"
    },
    {
      "inputs": [],
      "name": "getAllPlayer",
      "outputs": [
        {
          "components": [
            {
              "internalType": "string",
              "name": "name",
              "type": "string"
            },
            {
              "internalType": "uint256",
              "name": "level",
              "type": "uint256"
            },
            {
              "internalType": "uint256",
              "name": "highestScore",
              "type": "uint256"
            }
          ],
          "internalType": "struct PlayerContract.Player[]",
          "name": "",
          "type": "tuple[]"
        }
      ],
      "stateMutability": "view",
      "type": "function",
      "constant": true
    },
    {
      "inputs": [
        {
          "internalType": "uint256",
          "name": "playerID",
          "type": "uint256"
        }
      ],
      "name": "getPlayer",
      "outputs": [
        {
          "components": [
            {
              "internalType": "string",
              "name": "name",
              "type": "string"
            },
            {
              "internalType": "uint256",
              "name": "level",
              "type": "uint256"
            },
            {
              "internalType": "uint256",
              "name": "highestScore",
              "type": "uint256"
            }
          ],
          "internalType": "struct PlayerContract.Player",
          "name": "",
          "type": "tuple"
        }
      ],
      "stateMutability": "view",
      "type": "function",
      "constant": true
    }
  ],
  "bytecode": "0x608060405234801561001057600080fd5b50610b71806100206000396000f3fe608060405234801561001057600080fd5b50600436106100575760003560e01c806319ac547b1461005c578063302bcc571461007a5780639e0551c614610098578063c312f9d5146100ca578063e55ae4e8146100e6575b600080fd5b610064610116565b604051610071919061085b565b60405180910390f35b6100826102c7565b60405161008f91906108dd565b60405180910390f35b6100b260048036038101906100ad9190610679565b6102cd565b6040516100c19392919061087d565b60405180910390f35b6100e460048036038101906100df9190610612565b61037f565b005b61010060048036038101906100fb9190610679565b6103fe565b60405161010d91906108bb565b60405180910390f35b60606000805467ffffffffffffffff81111561015b577f4e487b7100000000000000000000000000000000000000000000000000000000600052604160045260246000fd5b60405190808252806020026020018201604052801561019457816020015b6101816104d1565b8152602001906001900390816101795790505b50905060005b6000548110156102bf57600160008281526020019081526020016000206040518060600160405290816000820180546101d290610a0b565b80601f01602080910402602001604051908101604052809291908181526020018280546101fe90610a0b565b801561024b5780601f106102205761010080835404028352916020019161024b565b820191906000526020600020905b81548152906001019060200180831161022e57829003601f168201915b50505050508152602001600182015481526020016002820154815250508282815181106102a1577f4e487b7100000000000000000000000000000000000000000000000000000000600052603260045260246000fd5b602002602001018190525080806102b790610a3d565b91505061019a565b508091505090565b60005481565b60016020528060005260406000206000915090508060000180546102f090610a0b565b80601f016020809104026020016040519081016040528092919081815260200182805461031c90610a0b565b80156103695780601f1061033e57610100808354040283529160200191610369565b820191906000526020600020905b81548152906001019060200180831161034c57829003601f168201915b5050505050908060010154908060020154905083565b604051806060016040528084815260200183815260200182815250600160008054815260200190815260200160002060008201518160000190805190602001906103ca9291906104f2565b5060208201518160010155604082015181600201559050506000808154809291906103f490610a3d565b9190505550505050565b6104066104d1565b6001600083815260200190815260200160002060405180606001604052908160008201805461043490610a0b565b80601f016020809104026020016040519081016040528092919081815260200182805461046090610a0b565b80156104ad5780601f10610482576101008083540402835291602001916104ad565b820191906000526020600020905b81548152906001019060200180831161049057829003601f168201915b50505050508152602001600182015481526020016002820154815250509050919050565b60405180606001604052806060815260200160008152602001600081525090565b8280546104fe90610a0b565b90600052602060002090601f0160209004810192826105205760008555610567565b82601f1061053957805160ff1916838001178555610567565b82800160010185558215610567579182015b8281111561056657825182559160200191906001019061054b565b5b5090506105749190610578565b5090565b5b80821115610591576000816000905550600101610579565b5090565b60006105a86105a384610929565b6108f8565b9050828152602081018484840111156105c057600080fd5b6105cb8482856109c9565b509392505050565b600082601f8301126105e457600080fd5b81356105f4848260208601610595565b91505092915050565b60008135905061060c81610b24565b92915050565b60008060006060848603121561062757600080fd5b600084013567ffffffffffffffff81111561064157600080fd5b61064d868287016105d3565b935050602061065e868287016105fd565b925050604061066f868287016105fd565b9150509250925092565b60006020828403121561068b57600080fd5b6000610699848285016105fd565b91505092915050565b60006106ae838361079d565b905092915050565b60006106c182610969565b6106cb818561098c565b9350836020820285016106dd85610959565b8060005b8581101561071957848403895281516106fa85826106a2565b94506107058361097f565b925060208a019950506001810190506106e1565b50829750879550505050505092915050565b600061073682610974565b610740818561099d565b93506107508185602086016109d8565b61075981610b13565b840191505092915050565b600061076f82610974565b61077981856109ae565b93506107898185602086016109d8565b61079281610b13565b840191505092915050565b600060608301600083015184820360008601526107ba828261072b565b91505060208301516107cf602086018261083d565b5060408301516107e2604086018261083d565b508091505092915050565b6000606083016000830151848203600086015261080a828261072b565b915050602083015161081f602086018261083d565b506040830151610832604086018261083d565b508091505092915050565b610846816109bf565b82525050565b610855816109bf565b82525050565b6000602082019050818103600083015261087581846106b6565b905092915050565b600060608201905081810360008301526108978186610764565b90506108a6602083018561084c565b6108b3604083018461084c565b949350505050565b600060208201905081810360008301526108d581846107ed565b905092915050565b60006020820190506108f2600083018461084c565b92915050565b6000604051905081810181811067ffffffffffffffff8211171561091f5761091e610ae4565b5b8060405250919050565b600067ffffffffffffffff82111561094457610943610ae4565b5b601f19601f8301169050602081019050919050565b6000819050602082019050919050565b600081519050919050565b600081519050919050565b6000602082019050919050565b600082825260208201905092915050565b600082825260208201905092915050565b600082825260208201905092915050565b6000819050919050565b82818337600083830152505050565b60005b838110156109f65780820151818401526020810190506109db565b83811115610a05576000848401525b50505050565b60006002820490506001821680610a2357607f821691505b60208210811415610a3757610a36610ab5565b5b50919050565b6000610a48826109bf565b91507fffffffffffffffffffffffffffffffffffffffffffffffffffffffffffffffff821415610a7b57610a7a610a86565b5b600182019050919050565b7f4e487b7100000000000000000000000000000000000000000000000000000000600052601160045260246000fd5b7f4e487b7100000000000000000000000000000000000000000000000000000000600052602260045260246000fd5b7f4e487b7100000000000000000000000000000000000000000000000000000000600052604160045260246000fd5b6000601f19601f8301169050919050565b610b2d816109bf565b8114610b3857600080fd5b5056fea26469706673582212206d602148fb7225999616e9c36007f0decc1a865535a47bd24f6c16aac06b4cb064736f6c63430008000033",
  "immutableReferences": {},
  "source": "// SPDX-License-Identifier: GPL-3.0\r\n\r\npragma solidity >= 0.8.0;\r\n\r\ncontract PlayerContract {\r\n\r\n  uint public playerCount;\r\n\r\n  struct Player\r\n  {\r\n    string name;\r\n    uint level;\r\n    uint highestScore;\r\n  }    \r\n\r\n  mapping(uint => Player) public player;\r\n   \r\n  /**\r\n    * @dev addPlayer is used to add the player.\r\n    * @param name - name \r\n    * @param level - level of the player\r\n    * @param highestScore - highestScore of the player\r\n  */ \r\n  function addPlayer(string memory name,uint level,uint highestScore)\r\n  public\r\n  {\r\n    player[playerCount] = Player(name,level,highestScore);\r\n    playerCount++;\r\n  }\r\n\r\n  /**\r\n    * @dev getAllPlayer is used to get the all players.\r\n  */ \r\n  function getAllPlayer()\r\n  public\r\n  view\r\n  returns(Player[] memory)\r\n  {\r\n\r\n   Player[] memory playerRecord = new Player[](playerCount);\r\n\r\n    for(uint i=0; i<playerCount; i++){\r\n      playerRecord[i] =  player[i];\r\n    }\r\n\r\n    return playerRecord;\r\n  }  \r\n\r\n  function getPlayer(uint playerID)\r\n  public\r\n  view\r\n  returns(Player memory)\r\n  {\r\n    return player[playerID];\r\n  } \r\n\r\n}",
  "sourcePath": "C:\\Users\\AHSAN\\Documents\\TransactionTruffle\\contracts\\Players.sol",
  "compiler": {
    "name": "solc",
    "version": "0.8.0+commit.c7dfd78e.Emscripten.clang"
  },
  "schemaVersion": "3.4.8",
  "updatedAt": "2022-08-06T20:59:53.399Z",
  "networkType": "ethereum",
  "devdoc": {
    "kind": "dev",
    "methods": {
      "addPlayer(string,uint256,uint256)": {
        "details": "addPlayer is used to add the player.",
        "params": {
          "highestScore": "- highestScore of the player",
          "level": "- level of the player",
          "name": "- name "
        }
      },
      "getAllPlayer()": {
        "details": "getAllPlayer is used to get the all players."
      }
    },
    "version": 1
  },
  "userdoc": {
    "kind": "user",
    "methods": {},
    "version": 1
  }
}